S016000072656D6F74655F636F6E74726F6C2E7372656322
S11300000C942A000C943F000C943F000C943F0085
S11300100C943F000C943F000C943F000C943F0060
S11300200C943F000C943F000C943F000C943F0050
S11300300C943F000C943F000C943F000C943F0040
S11300400C943F000C943F000C943F000C943F0030
S11300500C943F0011241FBECFE5D8E0DEBFCDBF16
S113006010E0A0E6B0E0EEECF6E002C005900D92E0
S1130070AC39B107D9F70E9424020C9465030C949F
S11300800000423008F06DC04130A1F5813089F0A4
S113009028F08230C9F0833011F108952AB381E049
S11300A090E002C0880F991F6A95E2F7822B8ABB01
S11300B0089527B381E090E002C0880F991F6A95E4
S11300C0E2F7822B87BB089524B381E090E002C05D
S11300D0880F991F6A95E2F7822B84BB089521B398
S11300E081E090E002C0880F991F6A95E2F7822BA5
S11300F081BB0895813091F028F08230D9F08330AB
S113010029F108952AB381E090E002C0880F991F75
S11301106A95E2F7809582238ABB089527B381E02C
S113012090E002C0880F991F6A95E2F780958223B8
S113013087BB089524B381E090E002C0880F991F23
S11301406A95E2F78095822384BB089521B381E008
S113015090E002C0880F991F6A95E2F78095822388
S113016081BB0895423008F06DC04130A1F5813063
S113017089F028F08230C9F0833011F108952BB34F
S113018081E090E002C0880F991F6A95E2F7822B04
S11301908BBB089528B381E090E002C0880F991FBB
S11301A06A95E2F7822B88BB089525B381E090E03D
S11301B002C0880F991F6A95E2F7822B85BB0895C8
S11301C022B381E090E002C0880F991F6A95E2F79C
S11301D0822B82BB0895813091F028F08230D9F0CF
S11301E0833029F108952BB381E090E002C0880F99
S11301F0991F6A95E2F7809582238BBB089528B3F3
S113020081E090E002C0880F991F6A95E2F780951B
S1130210822388BB089525B381E090E002C0880F53
S1130220991F6A95E2F78095822385BB089522B3CE
S113023081E090E002C0880F991F6A95E2F78095EB
S1130240822382BB0895813079F028F08230A9F0AE
S11302508330E1F024C089B390E002C0959587957E
S11302606A95E2F78170089586B390E002C095958F
S113027087956A95E2F78170089583B390E002C090
S1130280959587956A95E2F78170089580B390E01B
S113029002C0959587956A95E2F78170089580E08C
S11302A008959FEF960F9E3F28F16F3FA1F4813090
S11302B049F028F0823049F0833051F008958FEFEF
S11302C08ABB08958FEF87BB08958FEF84BB089591
S11302D08FEF81BB0895813041F028F0823039F0EE
S11302E0833039F008951ABA089517BA089514BAE4
S11302F0089511BA08950F931F93CF93DF9300D0FD
S113030000D0CDB7DEB7082F84E0898385E08A83E7
S113031086E08B8387E08C8310E014C0402F50E08C
S1130320012E02C0559547950A94E2F74170E1E029
S1130330F0E0EC0FFD1FE10FF11D608180E00E94F1
S1130340B2001F5F143050F30F900F900F900F9076
S1130350DF91CF911F910F91089541E063E081E017
S11303600E94B2008FE39FE10197F1F700C0000003
S113037040E063E081E00E94B2000895CF93C82F6B
S113038040E061E081E00E94B20040E062E081E090
S11303900E94B2008C2F82958F700E947B010E9474
S11303A0AD018C2F0E947B010E94AD01CF91089575
S11303B0CF93C82F41E061E081E00E94B20040E0A9
S11303C062E081E00E94B2008C2F82958F700E94BF
S11303D07B010E94AD018C2F0E947B010E94AD0124
S11303E0CF9108952FEF83EF91E02150804090400A
S11303F0E1F700C0000082E00E947B010E94AD0191
S113040082E00E947B010E94AD0188E00E947B0192
S11304100E94AD018CE00E94BE0181E00E94BE01F9
S113042008950F931F93CF938C01C0E003C00E94E3
S1130430D801CF5FF801EC0FF11D80818111F7CF56
S1130440CF911F910F9108956FEF80E00E945101A9
S113045041E061E081E00E94410041E062E081E02E
S11304600E94410041E063E081E00E9441000E945B
S1130470F2010E9495020E94560341E061E083E08C
S11304800E94410080E790E00E9411022FEF83ED6B
S113049090E3215080409040E1F700C0000081E0EB
S11304A00E94BE010E94E502823059F486E40E9453
S11304B0610381E00E94BE018BE790E00E9411027B
S11304C0F1CF843059F48CE40E94610381E00E94EE
S11304D0BE0183E890E00E941102E4CF863059F413
S11304E082E50E94610381E00E94BE0188E890E0F9
S11304F00E941102D7CF883059F482E40E9461032C
S113050081E00E94BE018EE890E00E941102CACFF1
S1130510853041F683E50E94610381E00E94BE01BB
S113052087E990E00E941102BDCF0F931F93CF93F0
S1130530DF93CDB7DEB728970FB6F894DEBF0FBEB2
S1130540CDBF24E0298395E09A8386E08B8337E04E
S11305503C8333E03D832E839F83888710E012C061
S1130560E1E0F0E0EC0FFD1FE10FF11D008141E03F
S1130570602F81E00E94410041E0602F81E00E94F1
S1130580B2001F5F143060F310E012C0E5E0F0E049
S1130590EC0FFD1FE10FF11D008140E0602F82E0B0
S11305A00E94410041E0602F82E00E94B2001F5F80
S11305B0143060F328960FB6F894DEBF0FBECDBF9B
S11305C0DF91CF911F910F910895AF92BF92CF9277
S11305D0DF92EF92FF920F931F93CF93DF93CDB7E8
S11305E0DEB728970FB6F894DEBF0FBECDBF24E068
S11305F0298395E09A8386E08B8337E03C8333E05C
S11306003D832E839F838887B12C3BC0CB2CD12C78
S1130610E1E0F0E0EC0FFD1FEC0DFD1DA08040E0DB
S11306206A2D81E00E94B20010E023C0E12EF12C7B
S1130630E5E0F0E0EC0FFD1FEE0DFF1D0081602FE3
S113064082E00E942301811113C0C701880F991F02
S1130650880F991F805A9F4FFC01EC0DFD1D1081DE
S1130660602F82E00E9423018823D1F3812F0DC0E3
S11306701F5F1430D8F241E06A2D81E00E94B2007D
S1130680B39483E08B1510F68FEF28960FB6F89489
S1130690DEBF0FBECDBFDF91CF911F910F91FF90B1
S11306A0EF90DF90CF90BF90AF90089586E880BD23
S11306B087E689B98AB180618AB98AB188608AB9C2
S11106C008958CB95D9BFECF0895F894FFCF8A
S11306CE01020361040506620708096361002364DD
S11306DE77656C636F6D65203A2900666F7277617A
S11306EE7264006C65667400726967687400626196
S10F06FE636B776172640073746F7000AA
S9030000FC
