:100000000C9433000C9461020C9459090C940C0963
:100010000C9459090C9459090C9459090C945909D8
:100020000C9459090C9459090C9459090C943207F1
:100030000C9459090C9459090C9459090C945909B8
:100040000C9459090C9459090C9459090C945909A8
:100050000C9459090060006380006300730012C0B3
:1000600000730077800011241FBECFE5D8E0DEBF0B
:10007000CDBFE4E5F0E040E017C0B591A591359122
:100080002591059107FD0CC095918591EF01F92F00
:10009000E82F05900D92A217B307D9F7FE0104C00F
:1000A0001D92A217B307E1F7E536F40731F70E9476
:0A00B000C1010C940109F894FFCF80
:1000BA004372656174652050617373776F72643A35
:1000CA00002A00456E7465722050617373776F72EF
:1000DA00643A0057454C434F4D45203A2900496E32
:1000EA0076616C69642050617373776F726400453E
:1000FA006E74657220416761696E3A00414C4552DF
:10010A005421212100496E66696E69746521004493
:10011A00697374616E6365203D200020636D00542D
:10012A00454D50203D200057656C636F6D65207406
:10013A006F206F75720053797374656D203A2900C8
:10014A005061726B696E672053656E736F720050EF
:10015A00415353574F52440054454D505552415400
:10016A005552450043414C43554C41544F52004E61
:0F017A006F7420696E2053797374656D212100B5
:10018A000F931F93CF93DF93CDB7DEB728970FB6A0
:10019A00F894DEBF0FBECDBF0E94B4056AEB70E0D3
:1001AA0080E00E94B80761E080E00E94EB0810E05E
:1001BA0023C00E94F60390ED980F9A30E8F4E1E02C
:1001CA00F0E0EC0FFD1FE10FF11D808390E00E942B
:1001DA0079032FEF81EE94E0215080409040E1F7BF
:1001EA0000C0000061E0812F0E94EB086BEC70E018
:1001FA0080E00E94B8071F5F1430D8F22FEF83EC1B
:10020A0099E0215080409040E1F700C0000081E071
:10021A000E94EE076DEC70E080E00E94B80761E092
:10022A0080E00E94EB0810E000E025C00E94F6037F
:10023A0090ED980F9A30F8F4E5E0F0E0EC0FFD1F2E
:10024A00E00FF11D808390E00E9479032FEF81EE89
:10025A0094E0215080409040E1F700C0000061E046
:10026A00802F0E94EB086BEC70E080E00E94B807D8
:10027A000F5F01C000E00430C8F241E06FC02FEF09
:10028A0082E597E0215080409040E1F700C00000ED
:10029A0020E013C0822F90E0E5E0F0E0EC0FFD1FB4
:1002AA00E80FF91F3081E1E0F0E0EC0FFD1FE80FE5
:1002BA00F91F8081381340E02F5F243058F3413012
:1002CA0009F565E083E00E9468040E94790700E06E
:1002DA0010E00BC0C8010E9453098FE99FE0019703
:1002EA00F1F700C000000F5F1F4F093E93E01907A6
:1002FA0088F381E00E94EE076DED70E080E00E94D5
:10030A00B8072FC041112AC081E00E94EE0768EEAB
:10031A0070E080E00E94B8072FEF82E597E0215055
:10032A0080409040E1F700C0000081E00E94EE07A3
:10033A0069EF70E080E00E94B80761E080E00E9407
:10034A00EB081F5F123009F095CF81E00E94EE079B
:10035A0066E071E080E00E94B80703C0133008F439
:10036A008ECF28960FB6F894DEBF0FBECDBFDF91B1
:08037A00CF911F910F9108952E
:100382006FEF80E00E94A40841E061E081E00E94FA
:10039200680441E062E081E00E94680441E063E0B9
:1003A20081E00E9468040E9499070E94F60861E3B6
:1003B20071E080E00E94B80761E080E00E94EB08F3
:1003C20060E471E080E00E94B8072FEF83ED90E3D4
:1003D200215080409040E1F700C0000081E00E947F
:1003E200EE070E944B09809360008133B9F481E0EB
:1003F2000E94EE076AE471E080E00E94B8072FEFE6
:100402008EE994E2215080409040E1F700C0000064
:1004120081E00E94EE070E944206E3CF8233B9F4E4
:1004220081E00E94EE0769E571E080E00E94B80772
:100432002FEF8EE994E2215080409040E1F700C016
:10044200000081E00E94EE070E94C500CACF8333FC
:10045200B1F481E00E94EE0762E671E080E00E9462
:10046200B8072FEF8EE994E2215080409040E1F7E7
:1004720000C0000081E00E94EE070E94050784335D
:10048200B1F481E00E94EE076EE671E080E00E9426
:10049200B8072FEF8EE994E2215080409040E1F7B7
:1004A20000C0000081E00E94EE070E94F60281E097
:1004B2000E94EE0769E771E080E00E94B80791CFE1
:1004C2001F920F920FB60F9211242F933F934F93C7
:1004D2005F936F937F938F939F93AF93BF93EF93AA
:1004E200FF9380917600813009F06EC08091750093
:1004F200811109C012BE81E08093750010927400D0
:100502001092730061C020E030E03091730082B736
:10051200280F311D369527953695279536952795BF
:10052200AFE4BBE10E94C30896958795969587959F
:1005320096958795909362008093610061E080E0D8
:100542000E94EB0880916100909162000E94790301
:100552008FE59AEE0197F1F700C0000080916100EB
:10056200909162009C01255131092930310570F4C6
:100572000E9431099FEF24E38CE09150204080409B
:10058200E1F700C000000E94370918C09C012B50FF
:1005920031092930310570F40E9431099FEF21EEB3
:1005A20084E0915020408040E1F700C000000E94AA
:1005B200370904C00B9714F40E9431091092740099
:1005C2001092730010927500FF91EF91BF91AF915D
:1005D2009F918F917F916F915F914F913F912F9159
:0A05E2000F900FBE0F901F901895A8
:1005EC000E94B405E12CF12C00E0D12CD0E010E0FD
:1005FC000E94F603C82F8F3239F140F48B32A9F0E8
:10060C008D32C1F08A3209F053C019C0833431F0F5
:10061C008F3F71F38D3309F04BC01BC081E00E94FA
:10062C00EE0700E0D12C10E0E3CF0E940808DC2F8D
:10063C0011E0DECF0E940808DC2F11E0D9CF0E9418
:10064C000808DC2F11E0D4CF0E940808DC2F11E041
:10065C00CFCF0E940808DB3249F018F4DA3281F06F
:10066C0019C0DD3241F0DF3279F014C0E02EF12CEC
:10067C00ED0CF11C0FC0ED2CF12CE01AF1080AC0A6
:10068C00D09E7001112406C08D2D602F0E94DF08B2
:10069C00E82EF12CDF3241F4011106C06FE071E05D
:1006AC0080E00E94B807A4CFC7010E947903A0CFB5
:1006BC008C2F0E94080811110DC08D2D880FD82E7B
:1006CC00DD0CDD0C8D0D8C0F0F2EF0EDDF2EF02DD3
:1006DC00D80E8ECF000F802F880F880F080FC00FF9
:0606EC0000ED0C0F85CFAC
:1006F200CF92DF92FF920F931F93CF93DF93CDB7E9
:10070200DEB72A970FB6F894DEBF0FBECDBF8C01BD
:1007120099235CF1F12C01C0F82ECF2CD12CC80109
:100722006AE070E00E943608E1E0F0E0EC0FFD1FA5
:10073200EC0DFD1D8083062F172F81E08F0D101603
:10074200110654F310E00EC0F601E11BF10981E03D
:1007520090E08C0F9D1FE80FF91F8081805D0E9441
:1007620008081F5FF11680F732C0992384F58DE2E5
:100772000E94080888279927801B910B10E001C06E
:10078200122FC12ED12C6AE070E00E943608E1E0FF
:10079200F0E0EC0FFD1FEC0DFD1D8083862F972FDF
:1007A20021E0210F181619065CF300E00EC0F601D5
:1007B200E01BF10981E090E08C0F9D1FE80FF91F0B
:1007C2008081805D0E9408080F5F101780F72A96CB
:1007D2000FB6F894DEBF0FBECDBFDF91CF911F9150
:0A07E2000F91FF90DF90CF90089573
:1007EC00AF92BF92CF92DF92EF92FF920F931F9333
:1007FC00CF93DF93CDB7DEB728970FB6F894DEBF53
:10080C000FBECDBF87E0898386E08A8385E08B832A
:10081C0084E08C831D8291E09E8393E09F83888784
:10082C00B12C3BC0CB2CD12CE1E0F0E0EC0FFD1F48
:10083C00EC0DFD1DA08040E06A2D81E00E94D904E2
:10084C0010E023C0E12EF12CE5E0F0E0EC0FFD1FF1
:10085C00EE0DFF1D0081602F80E00E94D7068111F4
:10086C0013C0C701880F991F880F991F8D599F4F6F
:10087C00FC01EC0DFD1D1081602F80E00E94D7065D
:10088C008823D1F3812F0DC01F5F1430D8F241E0C3
:10089C006A2D81E00E94D904B39483E08B1510F685
:1008AC008FEF28960FB6F894DEBF0FBECDBFDF9149
:1008BC00CF911F910F91FF90EF90DF90CF90BF9051
:0408CC00AF9008954C
:1008D000423008F06DC04130A1F5813089F028F038
:1008E0008230C9F0833011F108952AB381E090E09D
:1008F00002C0880F991F6A95E2F7822B8ABB089580
:1009000027B381E090E002C0880F991F6A95E2F753
:10091000822B87BB089524B381E090E002C0880F4A
:10092000991F6A95E2F7822B84BB089521B381E079
:1009300090E002C0880F991F6A95E2F7822B81BB75
:100940000895813091F028F08230D9F0833029F178
:1009500008952AB381E090E002C0880F991F6A953C
:10096000E2F7809582238ABB089527B381E090E067
:1009700002C0880F991F6A95E2F78095822387BB92
:10098000089524B381E090E002C0880F991F6A9512
:10099000E2F78095822384BB089521B381E090E043
:1009A00002C0880F991F6A95E2F78095822381BB68
:0209B0000895A8
:1009B200423008F06DC04130A1F5813089F028F055
:1009C2008230C9F0833011F108952BB381E090E0B9
:1009D20002C0880F991F6A95E2F7822B8BBB08959C
:1009E20028B381E090E002C0880F991F6A95E2F770
:1009F200822B88BB089525B381E090E002C0880F66
:100A0200991F6A95E2F7822B85BB089522B381E094
:100A120090E002C0880F991F6A95E2F7822B82BB91
:100A22000895813091F028F08230D9F0833029F195
:100A320008952BB381E090E002C0880F991F6A9558
:100A4200E2F7809582238BBB089528B381E090E082
:100A520002C0880F991F6A95E2F78095822388BBAE
:100A6200089525B381E090E002C0880F991F6A952E
:100A7200E2F78095822385BB089522B381E090E05E
:100A820002C0880F991F6A95E2F78095822382BB84
:020A92000895C5
:100A94000FC00E94160938F00E941D0920F095230A
:100AA40011F00C943D090C94560911240C94250959
:100AB4000E94570770F3959FC1F3950F50E0551F9F
:100AC400629FF001729FBB27F00DB11D639FAA279F
:100AD400F00DB11DAA1F649F6627B00DA11D661FEE
:100AE400829F2227B00DA11D621F739FB00DA11D0F
:100AF400621F839FA00D611D221F749F3327A00DC9
:100B0400611D231F849F600D211D822F762F6A2F64
:100B140011249F5750409AF0F1F088234AF0EE0FC9
:100B2400FF1FBB1F661F771F881F91505040A9F7F6
:100B34009E3F510580F00C943D090C9425095F3FBC
:100B4400E4F3983ED4F3869577956795B795F79532
:100B5400E7959F5FC1F7FE2B880F911D96958795AA
:040B640097F9089560
:100B68000F931F93CF93DF93CDB7DEB728970FB6B8
:100B7800F894DEBF0FBECDBF87E0898386E08A8305
:100B880085E08B8384E08C831D8291E09E8393E0D3
:100B98009F83888710E012C0E1E0F0E0EC0FFD1FB2
:100BA800E10FF11D008141E0602F81E00E9468049F
:100BB80041E0602F81E00E94D9041F5F143060F388
:100BC80010E012C0E5E0F0E0EC0FFD1FE10FF11DB1
:100BD800008140E0602F80E00E94680441E0602FBF
:100BE80080E00E94D9041F5F143060F328960FB686
:100BF800F894DEBF0FBECDBFDF91CF911F910F914B
:020C080008954D
:100C0A00E89409C097FB3EF490958095709561959C
:100C1A007F4F8F4F9F4F9923A9F0F92F96E9BB2752
:100C2A009395F695879577956795B795F111F8CFCE
:100C3A00FAF4BB0F11F460FF1BC06F5F7F4F8F4F39
:100C4A009F4F16C0882311F096E911C0772321F02F
:100C5A009EE8872F762F05C0662371F096E8862FC7
:100C6A0070E060E02AF09A95660F771F881FDAF71E
:0A0C7A00880F9695879597F9089565
:100C84000E9447090E94B40882E00E94D3070E9490
:100C94002B0969E171E080E00E94B8078FE39CE9C9
:100CA4000197F1F700C000000E9422089FEF21EE97
:100CB40084E0915020408040E1F700C0000061E0F2
:100CC40081E00E94EB0880E20E94080861E082E073
:100CD4000E94EB0865E271E080E00E94B807809111
:080CE4006000813309F308955B
:100CEC000F931F93CF93DF9300D000D0CDB7DEB717
:100CFC00082F84E0898385E08A8386E08B8387E0F4
:100D0C008C8310E014C0402F50E0012E02C055958A
:100D1C0047950A94E2F74170E1E0F0E0EC0FFD1F1B
:100D2C00E10FF11D608180E00E94D9041F5F143037
:100D3C0050F30F900F900F900F90DF91CF911F9168
:040D4C000F91089566
:100D50000E945F0788F09F5798F0B92F9927B751E5
:100D6000B0F0E1F0660F771F881F991F1AF0BA954F
:100D7000C9F714C0B13091F00E942409B1E0089580
:100D80000C942409672F782F8827B85F39F0B93F72
:100D9000CCF3869577956795B395D9F73EF4909502
:0E0DA0008095709561957F4F8F4F9F4F0895FE
:100DAE00813079F028F08230A9F08330E1F024C050
:100DBE0089B390E002C0959587956A95E2F78170A8
:100DCE00089586B390E002C0959587956A95E2F7EF
:100DDE008170089583B390E002C0959587956A95CA
:100DEE00E2F78170089580B390E002C095958795E3
:0C0DFE006A95E2F78170089580E0089586
:100E0A000E945E0840E060E080E00E94680460E0C2
:100E1A0080E00E94EB0869E271E080E00E94B80776
:100E2A0080E00E947108BC0180E090E00E94050603
:100E3A0023E23BED49EF5EE30E944F090E94A806B8
:100E4A00CB010E9479032FEF83ED90E3215080407C
:0A0E5A009040E1F700C00000DACF7D
:100E64001F920F920FB60F9211242F938F939F937B
:100E74008091730090917400019690937400809314
:100E840073008A3D924049F412BE1092760010928B
:100E9400750010927400109273009F918F912F919E
:0A0EA4000F900FBE0F901F901895DD
:100EAE0057FD9058440F551F59F05F3F71F047950D
:100EBE00880F97FB991F61F09F3F79F087950895F2
:100ECE00121613061406551FF2CF4695F1DF08C011
:100EDE00161617061806991FF1CF8695710561052E
:040EEE0008940895C7
:100EF2008FB580688FBD8FB58F7B8FBD8FB58E7F8D
:100F02008FBD8FB582608FBD8EB588608EBD8EB568
:100F120080618EBD80E49CE997BD86BD8EB58E7FD3
:100F22008EBD8EB582608EBD8EB58B7F8EBD0895CF
:100F32002FEF83EF91E0215080409040E1F700C015
:100F4200000082E00E9476060E94820882E00E94EF
:100F520076060E94820888E00E9476060E94820835
:0E0F62008CE00E94EE0781E00E94EE070895E9
:100F7000CF92DF92EF92CF936B01E82EC0E003C0D7
:100F80000E940808CF5FAE2DC6018C0F911DA11DD8
:100F9000FC018491A7FD80818111F2CFCF91EF9068
:060FA000DF90CF900895E0
:100FA60093B7987F93BF93B7916093BF12BE823079
:100FB60021F489B7816089BF0895813059F483B7D8
:100FC6008F7B83BF83B7886083BF8AEF8CBF89B767
:060FD600826089BF08954E
:100FDC00CF93C82F40E061E081E00E94D90440E04B
:100FEC0062E081E00E94D9048C2F82958F700E9460
:100FFC0076060E9482088C2F0E9476060E94820838
:04100C00CF910895E3
:10101000CF93C82F41E061E081E00E94D90440E015
:1010200062E081E00E94D9048C2F82958F700E942B
:1010300076060E9482088C2F0E9476060E94820803
:04104000CF910895AF
:101044008091760081110FC041E061E00E94D904D3
:1010540080E58A95F1F740E061E080E00E94D904E0
:0810640081E0809376000895FD
:10106C0097FB072E16F4009407D077FD09D00E9449
:10107C004A0807FC05D03EF4909581959F4F089542
:08108C00709561957F4F0895F6
:10109400AA1BBB1B51E107C0AA1FBB1FA617B7079A
:1010A40010F0A61BB70B881F991F5A95A9F78095B6
:0810B4009095BC01CD010895E7
:1010BC0087B1806487B987B18F7787B986B1816032
:1010CC0086B986B1826086B986B1846086B986B1EC
:0610DC00806886B908954A
:1010E20097B1907E97B997B1892B87B986B1806401
:1010F20086B9349BFECF86B1806186B984B195B141
:0211020008954E
:1011040041E063E081E00E94D9048FE39FE101970D
:10111400F1F700C0000040E063E081E00E94D904E0
:0211240008952C
:10112600092E0394000C11F4882352F0BB0F40F4EF
:10113600BF2B11F460FF04C06F5F7F4F8F4F9F4F2F
:0211460008950A
:10114800813041F028F0823039F0833039F0089549
:101158006ABB089567BB089564BB089561BB089591
:1011680041E061E080E00E94680440E062E083E0E2
:0E1178000E9468040E94D2080E944309089554
:10118600A29FB001B39FC001A39F700D811D1124C2
:0E119600911DB29F700D811D1124911D0895B1
:1011A40085B7877F85BF85B7846085BF85B78D7F09
:0A11B40085BF85B7816085BF0895EF
:1011BE00991B79E004C0991F961708F0961B881F9B
:0811CE007A95C9F78095089598
:1011D600662329F0613011F4805C01C080E08068EC
:0611E6000E94EE070895CF
:1011EC008AB180618AB98AB188608AB986E880BD83
:0611FC0087E689B90895A1
:10120200EC010E945E090E945D09CE010E945F0905
:06121200CE010E945B0901
:101218001F920F920FB60F9211240F900FBE0F90CE
:041228001F90189566
:0E122C0000240A9416161706180609060895DF
:0E123A0000240A9412161306140605060895E1
:0E124800E894BB2766277727CB0197F9089516
:0C12560041E063E080E00E94680408951D
:0C12620041E063E080E00E94D9040895A0
:0C126E0040E063E080E00E94D904089595
:0C127A0097F99F6780E870E060E008953D
:081286008BB780648BBF089553
:08128E008FB780688FBF08953F
:081296005F9BFECF8CB10895AF
:08129E000E944A050C9493081C
:0612A6009BBD8ABD089506
:0612AC009FEF80EC0895A5
:0412B2000C94000098
:0412B6000E945B0037
:0212BA00089595
:0212BC00089593
:0212BE00089591
:1012C0003132332F3435362A3738392D43303D2BE0
:00000001FF
