S0100000574156455F4150502E73726563A1
S11300000C942A000C9484010C94FC0A0C940D0B9F
S11300100C9447000C9447000C9447000C94470040
S11300200C9447000C9447000C9447000C94470030
S11300300C9447000C9447000C9447000C94470020
S11300400C9447000C9447000C9447000C94470010
S11300500C94470011241FBECFE5D8E0DEBFCDBF0E
S113006010E0A0E6B0E0ECEBF9E102C005900D92DF
S1130070A83FB107D9F721E0A8EFB0E001C01D9275
S1130080A130B207E1F70E9413030C94DC0C0C942A
S11300900000423008F06DC04130A1F5813089F094
S11300A028F08230C9F0833011F108952AB381E039
S11300B090E002C0880F991F6A95E2F7822B8ABBF1
S11300C0089527B381E090E002C0880F991F6A95D4
S11300D0E2F7822B87BB089524B381E090E002C04D
S11300E0880F991F6A95E2F7822B84BB089521B388
S11300F081E090E002C0880F991F6A95E2F7822B95
S113010081BB0895813091F028F08230D9F083309A
S113011029F108952AB381E090E002C0880F991F65
S11301206A95E2F7809582238ABB089527B381E01C
S113013090E002C0880F991F6A95E2F780958223A8
S113014087BB089524B381E090E002C0880F991F13
S11301506A95E2F78095822384BB089521B381E0F8
S113016090E002C0880F991F6A95E2F78095822378
S113017081BB0895423008F06DC04130A1F5813053
S113018089F028F08230C9F0833011F108952BB33F
S113019081E090E002C0880F991F6A95E2F7822BF4
S11301A08BBB089528B381E090E002C0880F991FAB
S11301B06A95E2F7822B88BB089525B381E090E02D
S11301C002C0880F991F6A95E2F7822B85BB0895B8
S11301D022B381E090E002C0880F991F6A95E2F78C
S11301E0822B82BB0895813091F028F08230D9F0BF
S11301F0833029F108952BB381E090E002C0880F89
S1130200991F6A95E2F7809582238BBB089528B3E2
S113021081E090E002C0880F991F6A95E2F780950B
S1130220822388BB089525B381E090E002C0880F43
S1130230991F6A95E2F78095822385BB089522B3BE
S113024081E090E002C0880F991F6A95E2F78095DB
S1130250822382BB08956F3FA1F4813049F028F0D6
S1130260823049F0833051F008958FEF8ABB0895AE
S11302708FEF87BB08958FEF84BB08958FEF81BB09
S11302800895813041F028F0823039F0833039F01C
S113029008951ABA089517BA089514BA089511BAA8
S11302A00895823039F485B7826085BF85B78E7F23
S11302B085BF0895833031F485B7826085BF85B7E3
S11302C0816085BF089585B7886085BF85B78460E0
S11302D085BF85B7826085BF85B7816085BF84B7D8
S11302E0806484BF08958BB780648BBF08958BB7F7
S11302F080688BBF08958BB780628BBF08959093FD
S1130300F9008093F80008951F920F920FB60F9290
S113031011242F933F934F935F936F937F938F9306
S11303209F93AF93BF93EF93FF93E091F800F09105
S1130330F9000995FF91EF91BF91AF919F918F9132
S11303407F916F915F914F913F912F910F900FBECD
S11303500F901F901895789408950F931F93CF933F
S1130360DF9300D000D0CDB7DEB7082F84E08983B7
S113037085E08A8386E08B8387E08C8310E014C059
S1130380402F50E0012E02C0559547950A94E2F79C
S11303904170E1E0F0E0EC0FFD1FE10FF11D608121
S11303A080E00E94BA001F5F143050F30F900F904A
S11303B00F900F90DF91CF911F910F91089541E01D
S11303C062E080E00E94BA008FE39FE10197F1F7B9
S11303D000C0000040E062E080E00E94BA0008959E
S11303E0CF93C82F40E060E080E00E94BA0040E074
S11303F061E080E00E94BA008C2F82958F700E9489
S1130400AD010E94DF018C2F0E94AD010E94DF012B
S1130410CF910895CF93C82F41E060E080E00E941F
S1130420BA0040E061E080E00E94BA008C2F82951F
S11304308F700E94AD010E94DF018C2F0E94AD01DC
S11304400E94DF01CF9108952FEF83EF91E02150B7
S113045080409040E1F700C0000082E00E94AD01BE
S11304600E94DF0182E00E94AD010E94DF0188E06A
S11304700E94AD010E94DF018CE00E94F00181E046
S11304800E94F00108951F93CF93DF93EC0110E0D5
S113049009C00E940A021F5F2196183219F480ECE9
S11304A00E94F00188818111F4CFDF91CF911F91D7
S11304B00895EF92FF920F931F93CF93DF93CDB7DD
S11304C0DEB72A970FB6F894DEBF0FBECDBFAC01DE
S11304D010E001C0182FE12EF12C9A01ADECBCEC18
S11304E00E94AB0C969587959695879596958795DA
S11304F09C01220F331F880F991F880F991F880FA3
S1130500991F820F931F9A01281B390BE1E0F0E039
S1130510EC0FFD1FEE0DFF1D20839A010E94AB0C12
S1130520AC0156954795569547955695479581E064
S1130530810F4115510571F600E00EC0F701E01B73
S1130540F10981E090E08C0F9D1FE80FF91F808175
S1130550805D0E940A020F5F101780F72A960FB67B
S1130560F894DEBF0FBECDBFDF91CF911F910F91E5
S1130570FF90EF900895662329F0613011F4805CB8
S113058001C080E080680E94F0010895EF92FF921C
S11305900F931F93CF93DF938C01D62FF42EE22E6B
S11305A0862F880F880F880F8F7780640E94F00150
S11305B0C0E007C0F801EC0FF11D80810E940A021F
S11305C0CF5FC830B8F36E2D8F2D0E94BB028D2FE4
S11305D00E940A02DF91CF911F910F91FF90EF903B
S11305E008958091FA008F5F8093FA00813031F48E
S11305F00E94340B82E00E9451010895823051F42C
S11306000E94370B909300018093FF0083E00E94C7
S113061051010895833031F40E94370B9093FE000A
S11306208093FD000895CF93DF93CDB7DEB768972D
S11306300FB6F894DEBF0FBECDBF88E0E0E6F0E071
S1130640DE01119601900D928A95E1F788E0E8E6C3
S1130650F0E0DE01199601900D928A95E1F78E0182
S11306600F5E1F4F88E0F80111928A95E9F740E088
S113067063E083E00E94490041E063E081E00E947E
S1130680490040E062E081E00E94490060EF80E0C0
S11306900E942B0141E060E080E00E94490041E0BB
S11306A061E080E00E94490041E062E080E00E9455
S11306B049000E9424020E94AB0183E00E94510180
S11306C00E9463010E9473010E941E0B81EF92E05D
S11306D00E947F0120E040E060E0CE0101960E948C
S11306E0C60220E040E061E0CE0109960E94C60205
S11306F020E040E062E0C8010E94C6020E94770147
S11307000E947B018091FC00882309F44DC051C0F4
S113071061E084E10E94BB0280E790E00E94430212
S11307208091FF00909100010E94590261E081E2F2
S11307300E94BB0285E790E00E9443028091FD0085
S11307409091FE000E94590261E080E00E94BB0289
S11307508AE790E00E9443022091FF00309100015B
S11307600024369527950794369527950794322FBC
S1130770202D40E050E060E074E284EF90E00E94BD
S11307808C0CC9010E94590260E086E20E94BB02FF
S113079080ED90E00E94430260E080E00E94BB0292
S11307A080E890E00E9443028091FC00882309F4D1
S11307B0AFCF8091FC008A3009F0C1C00E943A0B8F
S11307C061E084E10E94BB0280E790E00E94430262
S11307D08091FF00909100010E94590261E08AE13A
S11307E00E94BB028CEC90E00E94430261E081E233
S11307F00E94BB0285E790E00E9443028091FD00C5
S11308009091FE000E94590261E080E00E94BB02C8
S11308108AE790E00E9443022091FF00309100019A
S11308200024369527950794369527950794322FFB
S1130830202D40E050E060E074E284EF90E00E94FC
S11308408C0CC9010E94590261E089E00E94BB023C
S11308508CEC90E00E94430260E085E20E94BB02BF
S113086087EA90E00E94430265C08091FB008032D9
S113087030F160E08FE10E94BB0282E00E940A0234
S113088060E080E20E94BB0282E00E940A0260E013
S113089081E20E94BB0282E00E940A0260E082E2DE
S11308A00E94BB0282E00E940A0260E08EE10E9484
S11308B0BB0281EA90E00E9443021092FB0060E0D8
S11308C080E00E94BB0286E890E00E94430260E060
S11308D08091FB000E94BB0281E00E940A02809189
S11308E0FB0060E08F5F0E94BB0286EF90E00E94F5
S11308F043028091FB0060E08E5F0E94BB0280E0B7
S11309000E940A028091FB0060E08D5F0E94BB029E
S113091085EA90E00E944302FFEF20E782E0F15075
S113092020408040E1F700C000008091FB008F5F11
S11309308093FB008091FC008A3009F496CF80916B
S1130940FC00843109F0C1C00E943A0B61E084E1EB
S11309500E94BB0280E790E00E9443028091FF0066
S1130960909100010E94590261E08AE10E94BB0259
S11309708CEC90E00E94430261E081E20E94BB02A1
S113098085E790E00E9443028091FD009091FE0073
S11309900E94590261E080E00E94BB028AE790E075
S11309A00E9443022091FF003091000100243695FB
S11309B027950794369527950794322F202D40E0EC
S11309C050E060E074E284EF90E00E948C0CC90176
S11309D00E94590261E089E00E94BB028CEC90E025
S11309E00E94430260E085E20E94BB028BEA90E031
S11309F00E94430265C08091FB00803230F160E0C8
S1130A008FE10E94BB0282E00E940A0260E080E261
S1130A100E94BB0282E00E940A0260E081E20E941E
S1130A20BB0282E00E940A0260E082E20E94BB02F2
S1130A3082E00E940A0260E08EE10E94BB0281EA29
S1130A4090E00E9443021092FB0060E080E00E946C
S1130A50BB0286E890E00E94430260E08091FB00C4
S1130A600E94BB0281E00E940A028091FB0060E0C8
S1130A708F5F0E94BB0285EF90E00E944302809149
S1130A80FB0060E08D5F0E94BB0280E00E940A02CE
S1130A908091FB0060E08C5F0E94BB0285EA90E0DD
S1130AA00E9443029FEFE3EFF1E09150E040F040F9
S1130AB0E1F700C000008091FB008F5F8093FB0092
S1130AC08091FC00843109F496CF8091FC008E3132
S1130AD009F0C1C00E943A0B61E084E10E94BB02AC
S1130AE080E790E00E9443028091FF009091000112
S1130AF00E94590261E08AE10E94BB028CEC90E002
S1130B000E94430261E081E20E94BB0285E790E01B
S1130B100E9443028091FD009091FE000E945902C0
S1130B2061E080E00E94BB028AE790E00E944302F9
S1130B302091FF00309100010024369527950794F9
S1130B40369527950794322F202D40E050E060E041
S1130B5074E284EF90E00E948C0CC9010E94590257
S1130B6061E089E00E94BB028CEC90E00E944302A9
S1130B7060E085E20E94BB028FEA90E00E9443029B
S1130B8065C08091FB008F3130F160E08FE10E94FD
S1130B90BB0282E00E940A0260E080E20E94BB0283
S1130BA082E00E940A0260E081E20E94BB0282E0CD
S1130BB00E940A0260E082E20E94BB0282E00E947C
S1130BC00A0260E08EE10E94BB0281EA90E00E948A
S1130BD043021092FB0060E080E00E94BB0286E8C2
S1130BE090E00E94430260E08091FB000E94BB02FF
S1130BF081E00E940A028091FB0060E08F5F0E9406
S1130C00BB0284EF90E00E9443028091FB0060E00D
S1130C108C5F0E94BB0280E00E940A028091FB006C
S1130C2060E08B5F0E94BB0285EA90E00E94430271
S1130C302FEF80E792E0215080409040E1F700C020
S1130C4000008091FB008F5F8093FB008091FC008B
S1130C508E3109F496CF8091FC00883209F0B9C036
S1130C600E943A0B61E084E10E94BB0280E790E0BD
S1130C700E9443028091FF00909100010E9459025A
S1130C8061E081E20E94BB0285E790E00E9443029A
S1130C908091FD009091FE000E94590261E080E085
S1130CA00E94BB028AE790E00E9443022091FF0069
S1130CB030910001002436952795079436952795A1
S1130CC00794322F202D40E050E060E074E284EF7E
S1130CD090E00E948C0CC9010E94590261E089E0F5
S1130CE00E94BB028CEC90E00E94430260E085E22B
S1130CF00E94BB0283EB90E00E94430265C0809196
S1130D00FB008E3130F160E08FE10E94BB0282E093
S1130D100E940A0260E080E20E94BB0282E00E941C
S1130D200A0260E081E20E94BB0282E00E940A02A1
S1130D3060E082E20E94BB0282E00E940A0260E05C
S1130D408EE10E94BB0281EA90E00E94430210926D
S1130D50FB0060E080E00E94BB0286E890E00E9415
S1130D60430260E08091FB000E94BB0281E00E948C
S1130D700A028091FB0060E08F5F0E94BB0283EF58
S1130D8090E00E9443028091FB0060E08B5F0E9430
S1130D90BB0280E00E940A028091FB0060E08A5F4F
S1130DA00E94BB0285EA90E00E944302EFEFF0E765
S1130DB022E0E150F0402040E1F700C000008091C3
S1130DC0FB008F5F8093FB008091FC00883209F464
S1130DD096CF8091FC00823309F0B9C00E943A0B8F
S1130DE061E084E10E94BB0280E790E00E9443023C
S1130DF08091FF00909100010E94590261E081E21C
S1130E000E94BB0285E790E00E9443028091FD00AE
S1130E109091FE000E94590261E080E00E94BB02B2
S1130E208AE790E00E9443022091FF003091000184
S1130E300024369527950794369527950794322FE5
S1130E40202D40E050E060E074E284EF90E00E94E6
S1130E508C0CC9010E94590261E089E00E94BB0226
S1130E608CEC90E00E94430260E085E20E94BB02A9
S1130E7087EB90E00E94430265C08091FB008D31B6
S1130E8030F160E08FE10E94BB0282E00E940A021E
S1130E9060E080E20E94BB0282E00E940A0260E0FD
S1130EA081E20E94BB0282E00E940A0260E082E2C8
S1130EB00E94BB0282E00E940A0260E08EE10E946E
S1130EC0BB0281EA90E00E9443021092FB0060E0C2
S1130ED080E00E94BB0286E890E00E94430260E04A
S1130EE08091FB000E94BB0281E00E940A02809173
S1130EF0FB0060E08F5F0E94BB0282EF90E00E94E3
S1130F0043028091FB0060E08A5F0E94BB0280E0A4
S1130F100E940A028091FB0060E0895F0E94BB028C
S1130F2085EA90E00E9443028FEF90E7E2E081506F
S1130F309040E040E1F700C000008091FB008F5F2B
S1130F408093FB008091FC00823309F496CF80915A
S1130F50FC008C3309F0B9C00E943A0B61E084E1D3
S1130F600E94BB0280E790E00E9443028091FF0050
S1130F70909100010E94590261E081E20E94BB024B
S1130F8085E790E00E9443028091FD009091FE006D
S1130F900E94590261E080E00E94BB028AE790E06F
S1130FA00E9443022091FF003091000100243695F5
S1130FB027950794369527950794322F202D40E0E6
S1130FC050E060E074E284EF90E00E948C0CC90170
S1130FD00E94590261E089E00E94BB028CEC90E01F
S1130FE00E94430260E085E20E94BB028BEB90E02A
S1130FF00E94430265C08091FB008C3130F160E0B7
S11310008FE10E94BB0282E00E940A0260E080E25B
S11310100E94BB0282E00E940A0260E081E20E9418
S1131020BB0282E00E940A0260E082E20E94BB02EC
S113103082E00E940A0260E08EE10E94BB0281EA23
S113104090E00E9443021092FB0060E080E00E9466
S1131050BB0286E890E00E94430260E08091FB00BE
S11310600E94BB0281E00E940A028091FB0060E0C2
S11310708F5F0E94BB0281EF90E00E944302809147
S1131080FB0060E0895F0E94BB0280E00E940A02CC
S11310908091FB0060E0885F0E94BB0285EA90E0DB
S11310A00E944302FFEF20E782E0F150204080409D
S11310B0E1F700C000008091FB008F5F8093FB008C
S11310C08091FC008C3309F496CF8091FC00863427
S11310D009F0B9C00E943A0B61E084E10E94BB02AE
S11310E080E790E00E9443028091FF00909100010C
S11310F00E94590261E081E20E94BB0285E790E010
S11311000E9443028091FD009091FE000E945902CA
S113111061E080E00E94BB028AE790E00E94430203
S11311202091FF0030910001002436952795079403
S1131130369527950794322F202D40E050E060E04B
S113114074E284EF90E00E948C0CC9010E94590261
S113115061E089E00E94BB028CEC90E00E944302B3
S113116060E085E20E94BB028FEB90E00E944302A4
S113117065C08091FB008B3130F160E08FE10E940B
S1131180BB0282E00E940A0260E080E20E94BB028D
S113119082E00E940A0260E081E20E94BB0282E0D7
S11311A00E940A0260E082E20E94BB0282E00E9486
S11311B00A0260E08EE10E94BB0281EA90E00E9494
S11311C043021092FB0060E080E00E94BB0286E8CC
S11311D090E00E94430260E08091FB000E94BB0209
S11311E081E00E940A028091FB0060E08F5F0E9410
S11311F0BB028FEE90E00E9443028091FB0060E00E
S1131200885F0E94BB0280E00E940A028091FB007A
S113121060E0875F0E94BB0285EA90E00E9443027F
S11312209FEFE0E7F2E09150E040F040E1F700C0CA
S113123000008091FB008F5F8093FB008091FC0095
S1131240863409F496CF8091FC00803509F0B9C04A
S11312500E943A0B61E084E10E94BB0280E790E0C7
S11312600E9443028091FF00909100010E94590264
S113127061E081E20E94BB0285E790E00E944302A4
S11312808091FD009091FE000E94590261E080E08F
S11312900E94BB028AE790E00E9443022091FF0073
S11312A030910001002436952795079436952795AB
S11312B00794322F202D40E050E060E074E284EF88
S11312C090E00E948C0CC9010E94590261E089E0FF
S11312D00E94BB028CEC90E00E94430260E085E235
S11312E00E94BB0283EC90E00E94430265C080919F
S11312F0FB008A3130F160E08FE10E94BB0282E0A2
S11313000E940A0260E080E20E94BB0282E00E9426
S11313100A0260E081E20E94BB0282E00E940A02AB
S113132060E082E20E94BB0282E00E940A0260E066
S11313308EE10E94BB0281EA90E00E944302109277
S1131340FB0060E080E00E94BB0286E890E00E941F
S1131350430260E08091FB000E94BB0281E00E9496
S11313600A028091FB0060E08F5F0E94BB028EEE58
S113137090E00E9443028091FB0060E0875F0E943E
S1131380BB0280E00E940A028091FB0060E0865F5D
S11313900E94BB0285EA90E00E9443022FEF80E79F
S11313A092E0215080409040E1F700C0000080911D
S11313B0FB008F5F8093FB008091FC00803509F473
S11313C096CF8091FC008A3509F0B9C00E943A0B8F
S11313D061E084E10E94BB0280E790E00E94430246
S11313E08091FF00909100010E94590261E081E226
S11313F00E94BB0285E790E00E9443028091FD00B9
S11314009091FE000E94590261E080E00E94BB02BC
S11314108AE790E00E9443022091FF00309100018E
S11314200024369527950794369527950794322FEF
S1131430202D40E050E060E074E284EF90E00E94F0
S11314408C0CC9010E94590261E089E00E94BB0230
S11314508CEC90E00E94430260E085E20E94BB02B3
S113146087EC90E00E94430265C08091FB008931C3
S113147030F160E08FE10E94BB0282E00E940A0228
S113148060E080E20E94BB0282E00E940A0260E007
S113149081E20E94BB0282E00E940A0260E082E2D2
S11314A00E94BB0282E00E940A0260E08EE10E9478
S11314B0BB0281EA90E00E9443021092FB0060E0CC
S11314C080E00E94BB0281E890E00E94430260E059
S11314D08091FB000E94BB0281E00E940A0280917D
S11314E0FB0060E08F5F0E94BB028EEE90E00E94E2
S11314F043028091FB0060E0865F0E94BB0280E0B3
S11315000E940A028091FB0060E0855F0E94BB029A
S113151085EA90E00E944302EFEFF0E722E0E15019
S1131520F0402040E1F700C000008091FB008F5F95
S11315308093FB008091FC008A3509F496CF80915A
S1131540FC00843609F0DAC883E60E943A0B61E0B5
S113155084E10E94BB0280E790E00E9443028091F4
S1131560FF00909100010E94590261E081E20E9413
S1131570BB0285E790E00E9443028091FD009091B8
S1131580FE000E94590261E080E00E94BB028AE7EB
S113159090E00E9443022091FF003091000100245A
S11315A0369527950794369527950794322F202D45
S11315B040E050E060E074E284EF90E00E948C0C24
S11315C0C9010E94590261E088E00E94BB028BECD1
S11315D090E00E94430260E084E20E94BB028EEC31
S11315E090E00E94430260E080E00E94BB0283ED31
S11315F090E00E94430282C81F920F920FB60F928E
S113160011248F938091FC00865F8093FC008F915E
S11316100F900FBE0F901F9018951F920F920FB648
S11316200F9211248F938091FC008A508093FC00C8
S11316308F910F900FBE0F901F9018958FB58E7FCE
S11316408FBD8FB58D7F8FBD8EB5877F8EBD8EB5D7
S11316508F7E8EBD8EB581608EBD8EB582608EBD4F
S11316608EB58B7F8EBD08951DBC1CBC08958CB5B2
S11316709DB5089593B7987F93BF93B7936093BF35
S113168093B7906493BF93B7986093BF93B79062F6
S113169093BF93B79F7E93BF682F70E080E090E084
S11316A00E94930B2AE037ED43E250E40E941F0CA2
S11316B00E94620B6CBF08B601FEFDCF88B7826042
S11316C088BF08950E94FE0B88F09F5798F0B92FA9
S11316D09927B751B0F0E1F0660F771F881F991F63
S11316E01AF0BA95C9F714C0B13091F00E94180CE1
S11316F0B1E008950C94180C672F782F8827B85FF1
S113170039F0B93FCCF3869577956795B395D9F7BA
S11317103EF490958095709561957F4F8F4F9F4FC4
S11317200895E89409C097FB3EF4909580957095D0
S113173061957F4F8F4F9F4F9923A9F0F92F96E919
S1131740BB279395F695879577956795B795F1118E
S1131750F8CFFAF4BB0F11F460FF1BC06F5F7F4F2B
S11317608F4F9F4F16C0882311F096E911C077233D
S113177021F09EE8872F762F05C0662371F096E846
S1131780862F70E060E02AF09A95660F771F881F15
S1131790DAF7880F9695879597F9089597F99F67D3
S11317A080E870E060E008959FEF80EC08950024E5
S11317B00A941616170618060906089500240A94B2
S11317C012161306140605060895092E0394000C38
S11317D011F4882352F0BB0F40F4BF2B11F460FFC7
S11317E004C06F5F7F4F8F4F9F4F089557FD9058F0
S11317F0440F551F59F05F3F71F04795880F97FBD1
S1131800991F61F09F3F79F087950895121613068A
S11318101406551FF2CF4695F1DF08C016161706B9
S11318201806991FF1CF86957105610508940895EE
S1131830E894BB2766277727CB0197F908950E9480
S1131840320C0C94E50B0E94D70B38F00E94DE0B8F
S113185020F0952311F00C94CE0B0C94D40B11248E
S11318600C94190C0E94F60B70F3959FC1F3950F1D
S113187050E0551F629FF001729FBB27F00DB11D10
S1131880639FAA27F00DB11DAA1F649F6627B00DA0
S1131890A11D661F829F2227B00DA11D621F739F89
S11318A0B00DA11D621F839FA00D611D221F749F97
S11318B03327A00D611D231F849F600D211D822FDE
S11318C0762F6A2F11249F5750409AF0F1F0882305
S11318D04AF0EE0FFF1FBB1F661F771F881F915032
S11318E05040A9F79E3F510580F00C94CE0B0C9408
S11318F0190C5F3FE4F3983ED4F38695779567958A
S1131900B795F795E7959F5FC1F7FE2B880F911D5B
S11319109695879597F90895052E97FB1EF40094E4
S11319200E94A30C57FD07D00E94BA0C07FC03D0F9
S11319304EF40C94A30C50954095309521953F4F4F
S11319404F4F5F4F089590958095709561957F4FA7
S11319508F4F9F4F0895A29FB001B39FC001A39FD3
S1131960700D811D1124911DB29F700D811D1124D4
S1131970911D0895A1E21A2EAA1BBB1BFD010DC0E7
S1131980AA1FBB1FEE1FFF1FA217B307E407F5072B
S113199020F0A21BB30BE40BF50B661F771F881F07
S11319A0991F1A9469F760957095809590959B019D
S10F19B0AC01BD01CF010895F894FFCFF5
S11319BC00000010080403000000000102041800D9
S11319CC544F4E3A00544F563A00667265713A00C1
S11319DC5F5F5F5F5F5F5F5F5F5F5F5F5F5F5F5F07
S11319EC5F5F5F5F5F5F5F5F5F5F5F5F5F5F5F5FF7
S11319FC5F5F5F5F5F5F003130250032302500335D
S1131A0C302500343025003530250036302500379C
S1131A1C30250038302500393025002020003130A5
S1131A2C3025002D2D2D2D2D2D2D2D2D2D2D2D2D08
S1131A3C2D2D2D2D2D2D2D2D2D2D2D2D2D2D2D2DC6
S10B1A4C2D2D2D2D2D2D2D0053
S9030000FC
