S0120000536D6172745F486F6D652E7372656323
S11300000C942A000C9447000C9447000C940702AB
S11300100C9447000C9447000C9447000C94470040
S11300200C9447000C9447000C9447000C94470030
S11300300C9447000C9447000C9447000C94470020
S11300400C9447000C9447000C9447000C94470010
S11300500C94470011241FBECFE5D8E0DEBFCDBF0E
S113006011E0A0E6B0E0ECECFFE002C005900D92D8
S1130070AA39B107D9F721E0AAE9B1E001C01D927C
S1130080AA39B207E1F70E94F8030C94E4070C9430
S1130090000086B1887F86B986B1876086B987B14A
S11300A08F7787B987B1806487B986B1806886B94C
S11300B0089597B1907E97B997B1892B87B986B186
S11300C0806486B9349BFECF86B1806186B984B1E1
S11300D095B1089541E063E080E00E949C0008959A
S11300E041E063E080E00E940D01089540E063E098
S11300F080E00E940D01089541E064E083E00E94E5
S11301000D0141E063E082E00E940D0140E064E003
S113011082E00E940D01089541E064E083E00E94C2
S11301200D0140E063E082E00E940D0140E064E0E4
S113013082E00E940D010895423008F06DC0413004
S1130140A1F5813089F028F08230C9F0833011F1B3
S113015008952AB381E090E002C0880F991F6A9540
S1130160E2F7822B8ABB089527B381E090E002C0B6
S1130170880F991F6A95E2F7822B87BB089524B3F1
S113018081E090E002C0880F991F6A95E2F7822B04
S113019084BB089521B381E090E002C0880F991FC9
S11301A06A95E2F7822B81BB0895813091F028F0A3
S11301B08230D9F0833029F108952AB381E090E0A8
S11301C002C0880F991F6A95E2F7809582238ABB43
S11301D0089527B381E090E002C0880F991F6A95C3
S11301E0E2F78095822387BB089524B381E090E0F1
S11301F002C0880F991F6A95E2F78095822384BB19
S1130200089521B381E090E002C0880F991F6A9598
S1130210E2F78095822381BB0895423008F06DC0D7
S11302204130A1F5813089F028F08230C9F0833063
S113023011F108952BB381E090E002C0880F991F5B
S11302406A95E2F7822B8BBB089528B381E090E096
S113025002C0880F991F6A95E2F7822B88BB089524
S113026025B381E090E002C0880F991F6A95E2F7F8
S1130270822B85BB089522B381E090E002C0880FF1
S1130280991F6A95E2F7822B82BB0895813091F021
S113029028F08230D9F0833029F108952BB381E01E
S11302A090E002C0880F991F6A95E2F78095822337
S11302B08BBB089528B381E090E002C0880F991F9A
S11302C06A95E2F78095822388BB089525B381E07F
S11302D090E002C0880F991F6A95E2F78095822307
S11302E085BB089522B381E090E002C0880F991F76
S11302F06A95E2F78095822382BB0895813079F074
S113030028F08230A9F08330E1F024C089B390E072
S113031002C0959587956A95E2F78170089586B332
S113032090E002C0959587956A95E2F781700895EB
S113033083B390E002C0959587956A95E2F7817042
S1130340089580B390E002C0959587956A95E2F789
S11303508170089580E00895813041F028F0823062
S113036039F0833039F008956ABB089567BB089566
S113037064BB089561BB08951F93CF93DF93D82F77
S1130380C62F192F10650E943D07812F0E945F0719
S11303908D2F0E948B078C2F0E948B070E94AB0726
S11303A08FE19EE40197F1F700C00000DF91CF9147
S11303B01F9108950F931F93CF93DF931F92CDB78F
S11303C0DEB7182F1982092F00650E943D07802F80
S11303D00E945F07812F0E948B070E944E07802F87
S11303E00E947507812F0E948B07CE0101960E94FF
S11303F09A07182F0E94AB07111102C0898101C00E
S113040080E00F90DF91CF911F910F9108951F927B
S11304100F920FB60F9211240F900FBE0F901F90E2
S113042018950F931F93CF93DF93CDB7DEB728971B
S11304300FB6F894DEBF0FBECDBF84E0898385E09C
S11304408A8386E08B8387E08C831D8281E08E83A0
S113045082E08F8383E0888710E012C0E1E0F0E05F
S1130460EC0FFD1FE10FF11D008141E0602F82E0E0
S11304700E949C0041E0602F82E00E940D011F5FFA
S1130480143060F310E012C0E5E0F0E0EC0FFD1F63
S1130490E10FF11D008140E0602F82E00E949C008A
S11304A041E0602F82E00E940D011F5F143060F371
S11304B028960FB6F894DEBF0FBECDBFDF91CF9163
S11304C01F910F910895AF92BF92CF92DF92EF9256
S11304D0FF920F931F93CF93DF93CDB7DEB7289787
S11304E00FB6F894DEBF0FBECDBF84E0898385E0EC
S11304F08A8386E08B8387E08C831D8281E08E83F0
S113050082E08F8383E08887B12C3BC0CB2CD12C35
S1130510E1E0F0E0EC0FFD1FEC0DFD1DA08040E0DC
S11305206A2D82E00E940D0110E023C0E12EF12C1F
S1130530E5E0F0E0EC0FFD1FEE0DFF1D0081602FE4
S113054082E00E947E01811113C0C701880F991FA8
S1130550880F991F805A9F4FFC01EC0DFD1D1081DF
S1130560602F82E00E947E018823D1F3812F0DC089
S11305701F5F1430D8F241E06A2D82E00E940D0121
S1130580B39483E08B1510F68FEF28960FB6F8948A
S1130590DEBF0FBECDBFDF91CF911F910F91FF90B2
S11305A0EF90DF90CF90BF90AF9008950F931F937B
S11305B0CF93DF9300D000D0CDB7DEB7082F84E00F
S11305C0898385E08A8386E08B8387E08C8310E0CF
S11305D014C0402F50E0012E02C0559547950A944F
S11305E0E2F74170E1E0F0E0EC0FFD1FE10FF11DD7
S11305F0608180E00E940D011F5F143050F30F9062
S11306000F900F900F90DF91CF911F910F9108954C
S113061041E063E081E00E940D018FE39FE10197D7
S1130620F1F700C0000040E063E081E00E940D01AA
S11306300895CF93C82F40E061E081E00E940D014E
S113064040E062E081E00E940D018C2F82958F7062
S11306500E94D6020E9408038C2F0E94D6020E9498
S11306600803CF910895CF93C82F41E061E081E062
S11306700E940D0140E062E081E00E940D018C2F98
S113068082958F700E94D6020E9408038C2F0E94CC
S1130690D6020E940803CF9108952FEF83EF91E0D3
S11306A0215080409040E1F700C0000082E00E94A9
S11306B0D6020E94080382E00E94D6020E94080328
S11306C088E00E94D6020E9408038CE00E9419036D
S11306D081E00E9419030895EF92FF920F931F93F4
S11306E0CF937C01C0E00AC0C03119F480EC0E94B1
S11306F01903F80180810E943303CF5F87010C0F37
S1130700111DF80180818111EFCFCF911F910F91BD
S1130710FF90EF900895EF92FF920F931F93CF9362
S1130720DF93CDB7DEB72A970FB6F894DEBF0FBEBE
S1130730CDBFAC0110E001C0182FE12EF12C9A01BD
S1130740ADECBCEC0E94D507969587959695879558
S1130750969587959C01220F331F880F991F880F48
S1130760991F880F991F820F931F9A01281B390B19
S1130770E1E0F0E0EC0FFD1FEE0DFF1D20839A0178
S11307800E94D507AC0156954795569547955695C1
S1130790479581E0810F4115510571F600E00EC0C7
S11307A0F701E01BF10981E090E08C0F9D1FE80F39
S11307B0F91F8081805D0E9433030F5F101780F75B
S11307C02A960FB6F894DEBF0FBECDBFDF91CF914E
S11307D01F910F91FF90EF900895662329F06130E7
S11307E011F4805C01C080E080680E9419030895C0
S11307F040E060E083E00E949C000E94B20741E078
S113080065E083E00E949C000E941D070E946A002C
S113081041E060E081E00E949C000E9449000E9447
S1130820110260EF80E00E94AC0141E061E081E0F0
S11308300E949C0041E062E081E00E949C0041E053
S113084063E081E00E949C000E944D0360E085E02B
S11308500E94ED0380E790E00E946C032FEF87EA8B
S113086091E6215080409040E1F700C0000081E013
S11308700E941903F12CE12C00E060E080E00E946A
S1130880ED0387E790E00E946C030E94BD0790EDA2
S1130890980F923090F7803309F06CC160E080E0EB
S11308A00E94ED0387E890E00E946C030E94BD075C
S11308B0C82F81E00E941903C13309F078C060E0B9
S11308C080E00E94ED0389EA90E00E946C030E949C
S11308D0BD07D82F0E9433032FEF89E698E12150FA
S11308E080409040E1F700C0000081E00E941903BD
S11308F060E080E00E94ED0389EB90E00E946C03CD
S11309000E94BD07C82F0E9433032FEF89E698E1A8
S1130910215080409040E1F700C0000081E00E9437
S11309201903D13489F4C03379F489EC90E00E943E
S11309306C032FEF89E698E1215080409040E1F765
S113094000C00000C1E0A6C185ED90E00E946C03E8
S11309502FEF89E698E1215080409040E1F700C0F4
S11309600000E39423E02E1508F087CF41E060E017
S113097081E00E940D010E9470008FEF93EC29E04A
S1130980815090402040E1F700C0000040E060E06A
S113099081E00E940D010E9476008FEF93EC29E024
S11309A0815090402040E1F700C00000DFCFC03309
S11309B009F075C060E080E00E94ED0389EA90E0F0
S11309C00E946C030E94BD07D82F0E9433038FEF4F
S11309D099E628E1815090402040E1F700C00000F2
S11309E081E00E94190360E080E00E94ED0389EB3E
S11309F090E00E946C030E94BD07182F0E943303ED
S1130A008FEF99E628E1815090402040E1F700C043
S1130A10000081E00E941903C0E00EC08C2F90E01A
S1130A200E94DA01D81307C08C2F90E001960E942F
S1130A30DA01181729F0CE5FC01780F380E001C0F7
S1130A4081E0813081F4023070F084EE90E00E9405
S1130A506C038FEF99E628E1815090402040E1F744
S1130A6000C000000ACF811108CFC02ED12C6D2FF9
S1130A70C6010E94BC01612FC60101960E94BC01FF
S1130A800E5F83EF90E00E946C038FEF99E628E1FC
S1130A90815090402040E1F700C00000EECEC23308
S1130AA009F0EBCE81E00E94190360E080E00E942F
S1130AB0ED0381E091E00E946C038FEF99E628E159
S1130AC0815090402040E1F700C000000E94BD0723
S1130AD0D82F0E9433038FEF99E628E1815090408C
S1130AE02040E1F700C0000081E00E941903C0E04B
S1130AF007C08C2F90E00E94DA01D81729F0CF5F4D
S1130B00C017B8F380E001C081E0811123C081E205
S1130B1091E00E946C038FEF99E628E181509040A8
S1130B202040E1F700C00000A8CECC2ED12CC60195
S1130B3002960E94DA01682FC6010E94BC01C60118
S1130B4003960E94DA01682FC60101960E94BC0137
S1130B50CE5F0250C01748F380E391E00E946C031B
S1130B608FEF99E628E1815090402040E1F700C0E2
S1130B70000083CE813309F080CE60E080E00E94E3
S1130B80ED0389EA90E00E946C030E946302D82F6F
S1130B908F3F99F30E9433038FEF99E628E1815048
S1130BA090402040E1F700C0000081E00E9419035A
S1130BB060E080E00E94ED0389EB90E00E946C030A
S1130BC00E946302182F8F3F99F30E9433038FEF23
S1130BD099E628E1815090402040E1F700C00000F0
S1130BE081E00E941903C2E00CC08C2F90E00E94A7
S1130BF0DA01D81305C0812F90E08A5D914029F075
S1130C00CE5FC01790F380E001C081E0813079F4B9
S1130C1082E491E00E946C038FEF99E628E1815011
S1130C2090402040E1F700C00000C0E033C080E401
S1130C3091E00E946C038FEF99E628E18150904087
S1130C402040E1F700C00000F39483E08F1508F022
S1130C5014CE41E060E081E00E940D010E9470002A
S1130C609FEF23EC89E0915020408040E1F700C0E1
S1130C70000040E060E081E00E940D010E947600E7
S1130C809FEF23EC89E0915020408040E1F700C0C1
S1130C900000DFCF9FEF29E688E19150204080409B
S1130CA0E1F700C0000081E00E9419038EE491E0A6
S1130CB00E946C039FEF27EA81E691502040804018
S1130CC0E1F700C0000081E00E941903C13009F07F
S1130CD050C060E080E00E94ED038CE591E00E944A
S1130CE06C0361E080E00E94ED038BE691E00E94DA
S1130CF06C030E94BD078033C9F581E00E9419038B
S1130D0060E080E00E94ED0386E791E00E946C03BE
S1130D100E94BD07182F80ED810F8230B8F6113381
S1130D2099F40BC0CE010E943A078FE891E0019735
S1130D30F1F700C00000219602C0C0E0D0E0C53940
S1130D4091E1D90778F315C0C4E9D1E10AC0CE0115
S1130D500E943A078FE891E00197F1F700C0000084
S1130D6021972097A1F7103379F703C081E00E94FF
S1130D7019039FEF25EA8EE0915020408040E1F76F
S1130D8000C0000060E087E00E94ED0380E20E9462
S1130D90330360E088E00E94ED0380E20E943303A5
S1130DA080E00E945900AC018FE39CE90197F1F7C0
S1130DB000C0000024EF31E0429FC001439F900D2A
S1130DC0529F900D11246FEF73E00E94C107EB0155
S1130DD0649760E080E00E94ED0385E891E00E9462
S1130DE06C03CE010E948B036C97B8F00E947C00C8
S1130DF060E08FE00E94ED0380E20E94330360E034
S1130E0089E00E94ED038BE891E00E946C0341E0CD
S1130E1067E082E00E940D01ACCF0E948C0060E08C
S1130E2089E00E94ED0382E991E00E946C0340E0B6
S1130E3067E082E00E940D019CCF8FB58F7B8FBD50
S1130E408FB580688FBD8FB58E7F8FBD8FB5826063
S1130E508FBD8EB588608EBD8EB580618EBD80E4F9
S1130E609CE997BD86BD8EB5887F8EBD8EB58260A8
S1130E708EBD08959BBD8ABD089586B7806286BFE6
S1130E8086B7806886BF06B607FEFDCF81B1887F2E
S1130E90883011F480E0089581E0089586B7806277
S1130EA086BF86B7806886BF06B607FEFDCF81B1D0
S1130EB0887F803111F480E0089582E00895880FDE
S1130EC083B983B18E7F83B986B78F7D86BF86B79A
S1130ED0806886BF06B607FEFDCF81B1887F883162
S1130EE011F480E0089583E00895880F83B983B1F5
S1130EF0816083B986B78F7D86BF86B7806886BFD9
S1130F0006B607FEFDCF81B1887F803411F480E0FE
S1130F10089584E0089583B986B7806886BF06B6CD
S1130F2007FEFDCF81B1887F883211F480E00895F7
S1130F3085E00895FC0196B7906896BF06B607FE53
S1130F40FDCF91B1987F903521F483B1808380E007
S1130F50089586E0089586B7806186BF86B7806865
S1130F6086BF089586E880BD87E689B98AB1806125
S1130F708AB98AB188608AB908955F9BFECF8CB123
S1130F800895AA1BBB1B51E107C0AA1FBB1FA617CC
S1130F90B70710F0A61BB70B881F991F5A95A9F71E
S1130FA080959095BC01CD010895A29FB001B39F97
S1130FB0C001A39F700D811D1124911DB29F700D5E
S10F0FC0811D1124911D0895F894FFCFA9
S1130FCC3738394134353642313233432A303D4493
S1130FDC48454C4C4F2100303A61646D696E202CAD
S1130FEC313A7573657200303A726567697374656A
S1130FFC72202020202020313A61646D696E2032E9
S113100C3A64656C6574652000656E746572207550
S113101C7365726E616D653A00656E7465722070ED
S113102C617373776F72643A0056616C6964206102
S113103C646D696E00496E76616C69642061646DDF
S113104C696E2100416C7265616479207361766507
S113105C6421004163636F756E742053617665641B
S113106C00656E746572207573657220796F7520D6
S113107C2077616E7420746F2064656C6574653AB6
S113108C0075736572206E6F7420666F756E6400E4
S113109C757365722069732064656C65746564008E
S11310AC496E76616C6964207573657221005765AD
S11310BC6C636F6D65204261636B2100303A636F22
S11310CC6E74726F6C20646F6F7200313A636F6E62
S11310DC74696E756500303A6F70656E20313A63D1
S11310EC6C6F73650054454D503A0046414E3A6F4F
S10D10FC6E0046414E3A6F6666002E
S9030000FC
